{
  "contractName": "ComplexStorage",
  "abi": [
    {
      "inputs": [],
      "stateMutability": "nonpayable",
      "type": "constructor"
    },
    {
      "inputs": [],
      "name": "constuint",
      "outputs": [
        {
          "internalType": "uint256",
          "name": "",
          "type": "uint256"
        }
      ],
      "stateMutability": "view",
      "type": "function",
      "constant": true
    },
    {
      "inputs": [
        {
          "internalType": "uint256",
          "name": "",
          "type": "uint256"
        }
      ],
      "name": "deviceDataArray",
      "outputs": [
        {
          "internalType": "string",
          "name": "deviceBrand",
          "type": "string"
        },
        {
          "internalType": "string",
          "name": "deviceYear",
          "type": "string"
        },
        {
          "internalType": "string",
          "name": "batteryWearLevel",
          "type": "string"
        }
      ],
      "stateMutability": "view",
      "type": "function",
      "constant": true
    },
    {
      "inputs": [],
      "name": "investmentsDeadlineTimeStamp",
      "outputs": [
        {
          "internalType": "uint32",
          "name": "",
          "type": "uint32"
        }
      ],
      "stateMutability": "view",
      "type": "function",
      "constant": true
    },
    {
      "inputs": [],
      "name": "investmentsLimit",
      "outputs": [
        {
          "internalType": "uint128",
          "name": "",
          "type": "uint128"
        }
      ],
      "stateMutability": "view",
      "type": "function",
      "constant": true
    },
    {
      "inputs": [],
      "name": "singleDD",
      "outputs": [
        {
          "internalType": "string",
          "name": "deviceBrand",
          "type": "string"
        },
        {
          "internalType": "string",
          "name": "deviceYear",
          "type": "string"
        },
        {
          "internalType": "string",
          "name": "batteryWearLevel",
          "type": "string"
        }
      ],
      "stateMutability": "view",
      "type": "function",
      "constant": true
    },
    {
      "inputs": [],
      "name": "storeduint1",
      "outputs": [
        {
          "internalType": "uint256",
          "name": "",
          "type": "uint256"
        }
      ],
      "stateMutability": "view",
      "type": "function",
      "constant": true
    },
    {
      "inputs": [],
      "name": "string1",
      "outputs": [
        {
          "internalType": "bytes16",
          "name": "",
          "type": "bytes16"
        }
      ],
      "stateMutability": "view",
      "type": "function",
      "constant": true
    },
    {
      "inputs": [],
      "name": "string2",
      "outputs": [
        {
          "internalType": "bytes32",
          "name": "",
          "type": "bytes32"
        }
      ],
      "stateMutability": "view",
      "type": "function",
      "constant": true
    },
    {
      "inputs": [],
      "name": "string3",
      "outputs": [
        {
          "internalType": "string",
          "name": "",
          "type": "string"
        }
      ],
      "stateMutability": "view",
      "type": "function",
      "constant": true
    },
    {
      "inputs": [
        {
          "internalType": "uint256",
          "name": "",
          "type": "uint256"
        }
      ],
      "name": "uintarray",
      "outputs": [
        {
          "internalType": "uint256",
          "name": "",
          "type": "uint256"
        }
      ],
      "stateMutability": "view",
      "type": "function",
      "constant": true
    }
  ],
  "bytecode": "0x6080604052600f60005561429f600160006101000a8154816fffffffffffffffffffffffffffffffff02191690836fffffffffffffffffffffffffffffffff16021790555042600160106101000a81548163ffffffff021916908363ffffffff1602179055507f7465737431000000000000000000000000000000000000000000000000000000600260006101000a8154816fffffffffffffffffffffffffffffffff0219169083700100000000000000000000000000000000900402179055507f74657374313233360000000000000000000000000000000000000000000000006003556040518060400160405280601581526020017f6c65747320737472696e6720736f6d657468696e6700000000000000000000008152506004908051906020019062000131929190620007d8565b503480156200013f57600080fd5b50600073bccc714d56bc0da0fd33d96d2a87b680dd6d0df69050600073aee905fdd3ed851e48d22059575b9f4245a82b0490506058600560008473ffffffffffffffffffffffffffffffffffffffff1673ffffffffffffffffffffffffffffffffffffffff168152602001908152602001600020819055506063600560008373ffffffffffffffffffffffffffffffffffffffff1673ffffffffffffffffffffffffffffffffffffffff1681526020019081526020016000208190555060405180606001604052806040518060400160405280600b81526020017f6465766963654272616e6400000000000000000000000000000000000000000081525081526020016040518060400160405280600a81526020017f646576696365596561720000000000000000000000000000000000000000000081525081526020016040518060400160405280600981526020017f776561724c6576656c0000000000000000000000000000000000000000000000815250815250600660008473ffffffffffffffffffffffffffffffffffffffff1673ffffffffffffffffffffffffffffffffffffffff168152602001908152602001600020600082015181600001908051906020019062000313929190620007d8565b50602082015181600101908051906020019062000332929190620007d8565b50604082015181600201908051906020019062000351929190620007d8565b5090505060405180606001604052806040518060400160405280600c81526020017f6465766963654272616e6432000000000000000000000000000000000000000081525081526020016040518060400160405280600b81526020017f646576696365596561723200000000000000000000000000000000000000000081525081526020016040518060400160405280600a81526020017f776561724c6576656c3200000000000000000000000000000000000000000000815250815250600660008373ffffffffffffffffffffffffffffffffffffffff1673ffffffffffffffffffffffffffffffffffffffff16815260200190815260200160002060008201518160000190805190602001906200046c929190620007d8565b5060208201518160010190805190602001906200048b929190620007d8565b506040820151816002019080519060200190620004aa929190620007d8565b5090505060405180606001604052806040518060400160405280600c81526020017f6465766963654272616e6433000000000000000000000000000000000000000081525081526020016040518060400160405280600b81526020017f646576696365596561723300000000000000000000000000000000000000000081525081526020016040518060400160405280600a81526020017f776561724c6576656c33000000000000000000000000000000000000000000008152508152506009600082015181600001908051906020019062000588929190620007d8565b506020820151816001019080519060200190620005a7929190620007d8565b506040820151816002019080519060200190620005c6929190620007d8565b509050506007611f409080600181540180825580915050600190039060005260206000200160009091909190915055600761232890806001815401808255809150506001900390600052602060002001600090919091909150556008600660008473ffffffffffffffffffffffffffffffffffffffff1673ffffffffffffffffffffffffffffffffffffffff16815260200190815260200160002090806001815401808255809150506001900390600052602060002090600302016000909190919091506000820181600001908054620006a09062000920565b620006ad92919062000869565b506001820181600101908054620006c49062000920565b620006d192919062000869565b506002820181600201908054620006e89062000920565b620006f592919062000869565b5050506008600660008373ffffffffffffffffffffffffffffffffffffffff1673ffffffffffffffffffffffffffffffffffffffff16815260200190815260200160002090806001815401808255809150506001900390600052602060002090600302016000909190919091506000820181600001908054620007789062000920565b6200078592919062000869565b5060018201816001019080546200079c9062000920565b620007a992919062000869565b506002820181600201908054620007c09062000920565b620007cd92919062000869565b505050505062000985565b828054620007e69062000920565b90600052602060002090601f0160209004810192826200080a576000855562000856565b82601f106200082557805160ff191683800117855562000856565b8280016001018555821562000856579182015b828111156200085557825182559160200191906001019062000838565b5b50905062000865919062000901565b5090565b828054620008779062000920565b90600052602060002090601f0160209004810192826200089b5760008555620008ee565b82601f10620008ae5780548555620008ee565b82800160010185558215620008ee57600052602060002091601f016020900482015b82811115620008ed578254825591600101919060010190620008d0565b5b509050620008fd919062000901565b5090565b5b808211156200091c57600081600090555060010162000902565b5090565b600060028204905060018216806200093957607f821691505b6020821081141562000950576200094f62000956565b5b50919050565b7f4e487b7100000000000000000000000000000000000000000000000000000000600052602260045260246000fd5b6109e580620009956000396000f3fe608060405234801561001057600080fd5b50600436106100bb576000357c0100000000000000000000000000000000000000000000000000000000900480639275586011610083578063927558601461017e57806397ba784f1461019c578063a7b2cfca146101ba578063df4fddf5146101d8578063eec65f29146101f6576100bb565b80630ca0aa79146100c057806311f9c74d146100de57806328a20b5e146100fc5780636c0c1bcf1461011c57806384eeda561461014c575b600080fd5b6100c8610214565b6040516100d59190610791565b60405180910390f35b6100e661021a565b6040516100f39190610835565b60405180910390f35b610104610220565b604051610113939291906107ce565b60405180910390f35b610136600480360381019061013191906106c9565b6103d0565b6040516101439190610835565b60405180910390f35b610166600480360381019061016191906106c9565b6103f4565b604051610175939291906107ce565b60405180910390f35b6101866105c6565b60405161019391906107ac565b60405180910390f35b6101a4610654565b6040516101b19190610835565b60405180910390f35b6101c2610659565b6040516101cf9190610776565b60405180910390f35b6101e061067c565b6040516101ed9190610850565b60405180910390f35b6101fe610692565b60405161020b919061081a565b60405180910390f35b60035481565b60005481565b600980600001805461023190610926565b80601f016020809104026020016040519081016040528092919081815260200182805461025d90610926565b80156102aa5780601f1061027f576101008083540402835291602001916102aa565b820191906000526020600020905b81548152906001019060200180831161028d57829003601f168201915b5050505050908060010180546102bf90610926565b80601f01602080910402602001604051908101604052809291908181526020018280546102eb90610926565b80156103385780601f1061030d57610100808354040283529160200191610338565b820191906000526020600020905b81548152906001019060200180831161031b57829003601f168201915b50505050509080600201805461034d90610926565b80601f016020809104026020016040519081016040528092919081815260200182805461037990610926565b80156103c65780601f1061039b576101008083540402835291602001916103c6565b820191906000526020600020905b8154815290600101906020018083116103a957829003601f168201915b5050505050905083565b600781815481106103e057600080fd5b906000526020600020016000915090505481565b6008818154811061040457600080fd5b906000526020600020906003020160009150905080600001805461042790610926565b80601f016020809104026020016040519081016040528092919081815260200182805461045390610926565b80156104a05780601f10610475576101008083540402835291602001916104a0565b820191906000526020600020905b81548152906001019060200180831161048357829003601f168201915b5050505050908060010180546104b590610926565b80601f01602080910402602001604051908101604052809291908181526020018280546104e190610926565b801561052e5780601f106105035761010080835404028352916020019161052e565b820191906000526020600020905b81548152906001019060200180831161051157829003601f168201915b50505050509080600201805461054390610926565b80601f016020809104026020016040519081016040528092919081815260200182805461056f90610926565b80156105bc5780601f10610591576101008083540402835291602001916105bc565b820191906000526020600020905b81548152906001019060200180831161059f57829003601f168201915b5050505050905083565b600480546105d390610926565b80601f01602080910402602001604051908101604052809291908181526020018280546105ff90610926565b801561064c5780601f106106215761010080835404028352916020019161064c565b820191906000526020600020905b81548152906001019060200180831161062f57829003601f168201915b505050505081565b601081565b600260009054906101000a90047001000000000000000000000000000000000281565b600160109054906101000a900463ffffffff1681565b600160009054906101000a90046fffffffffffffffffffffffffffffffff1681565b6000813590506106c381610998565b92915050565b6000602082840312156106db57600080fd5b60006106e9848285016106b4565b91505092915050565b6106fb81610887565b82525050565b61070a816108b3565b82525050565b600061071b8261086b565b6107258185610876565b93506107358185602086016108f3565b61073e81610987565b840191505092915050565b610752816108bd565b82525050565b610761816108d9565b82525050565b610770816108e3565b82525050565b600060208201905061078b60008301846106f2565b92915050565b60006020820190506107a66000830184610701565b92915050565b600060208201905081810360008301526107c68184610710565b905092915050565b600060608201905081810360008301526107e88186610710565b905081810360208301526107fc8185610710565b905081810360408301526108108184610710565b9050949350505050565b600060208201905061082f6000830184610749565b92915050565b600060208201905061084a6000830184610758565b92915050565b60006020820190506108656000830184610767565b92915050565b600081519050919050565b600082825260208201905092915050565b60007fffffffffffffffffffffffffffffffff0000000000000000000000000000000082169050919050565b6000819050919050565b60006fffffffffffffffffffffffffffffffff82169050919050565b6000819050919050565b600063ffffffff82169050919050565b60005b838110156109115780820151818401526020810190506108f6565b83811115610920576000848401525b50505050565b6000600282049050600182168061093e57607f821691505b6020821081141561095257610951610958565b5b50919050565b7f4e487b7100000000000000000000000000000000000000000000000000000000600052602260045260246000fd5b6000601f19601f8301169050919050565b6109a1816108d9565b81146109ac57600080fd5b5056fea2646970667358221220c5b33a8efc5a5ee26881b7e2933b2cb9dc0e12a30a7e1bad37e990d683305d1064736f6c63430008000033",
  "immutableReferences": {},
  "source": "// SPDX-License-Identifier: MIT\npragma solidity ^0.8.0;\n\ncontract ComplexStorage {\n    uint256 public storeduint1 = 15;\n    uint256 public constant constuint = 16;\n    uint128 public investmentsLimit = 17055;\n    uint32 public investmentsDeadlineTimeStamp = uint32(block.timestamp);\n\n    bytes16 public string1 = \"test1\";\n    bytes32 public string2 = \"test1236\";\n    string public string3 = \"lets string something\";\n\n    mapping(address => uint256) uints1;\n    mapping(address => DeviceData) structs1;\n\n    uint256[] public uintarray;\n    DeviceData[] public deviceDataArray;\n    DeviceData public singleDD;\n\n    struct DeviceData {\n        string deviceBrand;\n        string deviceYear;\n        string batteryWearLevel;\n    }\n\n    constructor() public {\n        address address1 = 0xbCcc714d56bc0da0fd33d96d2a87b680dD6D0DF6;\n        address address2 = 0xaee905FdD3ED851e48d22059575b9F4245A82B04;\n\n        uints1[address1] = 88;\n        uints1[address2] = 99;\n\n        structs1[address1] = DeviceData(\n            \"deviceBrand\",\n            \"deviceYear\",\n            \"wearLevel\"\n        );\n        structs1[address2] = DeviceData(\n            \"deviceBrand2\",\n            \"deviceYear2\",\n            \"wearLevel2\"\n        );\n        singleDD = DeviceData(\"deviceBrand3\", \"deviceYear3\", \"wearLevel3\");\n\n        uintarray.push(8000);\n        uintarray.push(9000);\n\n        deviceDataArray.push(structs1[address1]);\n        deviceDataArray.push(structs1[address2]);\n    }\n}\n",
  "sourcePath": "/media/dev/a1f3111b-cf3b-4b8d-8080-52d4b51c231e6/dev//hackathons/DEFI/drizzle/contracts/ComplexStorage.sol",
  "compiler": {
    "name": "solc",
    "version": "0.8.0+commit.c7dfd78e.Linux.g++"
  },
  "schemaVersion": "3.4.0",
  "updatedAt": "2021-06-11T18:05:46.677Z",
  "networkType": "ethereum",
  "devdoc": {
    "kind": "dev",
    "methods": {},
    "version": 1
  },
  "userdoc": {
    "kind": "user",
    "methods": {},
    "version": 1
  }
}