{
  "contractName": "NftExample",
  "abi": [
    {
      "inputs": [],
      "stateMutability": "nonpayable",
      "type": "constructor"
    },
    {
      "anonymous": false,
      "inputs": [
        {
          "indexed": true,
          "internalType": "address",
          "name": "owner",
          "type": "address"
        },
        {
          "indexed": true,
          "internalType": "address",
          "name": "approved",
          "type": "address"
        },
        {
          "indexed": true,
          "internalType": "uint256",
          "name": "tokenId",
          "type": "uint256"
        }
      ],
      "name": "Approval",
      "type": "event"
    },
    {
      "anonymous": false,
      "inputs": [
        {
          "indexed": true,
          "internalType": "address",
          "name": "owner",
          "type": "address"
        },
        {
          "indexed": true,
          "internalType": "address",
          "name": "operator",
          "type": "address"
        },
        {
          "indexed": false,
          "internalType": "bool",
          "name": "approved",
          "type": "bool"
        }
      ],
      "name": "ApprovalForAll",
      "type": "event"
    },
    {
      "anonymous": false,
      "inputs": [
        {
          "indexed": true,
          "internalType": "address",
          "name": "previousOwner",
          "type": "address"
        },
        {
          "indexed": true,
          "internalType": "address",
          "name": "newOwner",
          "type": "address"
        }
      ],
      "name": "OwnershipTransferred",
      "type": "event"
    },
    {
      "anonymous": false,
      "inputs": [
        {
          "indexed": true,
          "internalType": "address",
          "name": "from",
          "type": "address"
        },
        {
          "indexed": true,
          "internalType": "address",
          "name": "to",
          "type": "address"
        },
        {
          "indexed": true,
          "internalType": "uint256",
          "name": "tokenId",
          "type": "uint256"
        }
      ],
      "name": "Transfer",
      "type": "event"
    },
    {
      "inputs": [
        {
          "internalType": "address",
          "name": "to",
          "type": "address"
        },
        {
          "internalType": "uint256",
          "name": "tokenId",
          "type": "uint256"
        }
      ],
      "name": "approve",
      "outputs": [],
      "stateMutability": "nonpayable",
      "type": "function"
    },
    {
      "inputs": [
        {
          "internalType": "address",
          "name": "owner",
          "type": "address"
        }
      ],
      "name": "balanceOf",
      "outputs": [
        {
          "internalType": "uint256",
          "name": "",
          "type": "uint256"
        }
      ],
      "stateMutability": "view",
      "type": "function"
    },
    {
      "inputs": [
        {
          "internalType": "uint256",
          "name": "tokenId",
          "type": "uint256"
        }
      ],
      "name": "getApproved",
      "outputs": [
        {
          "internalType": "address",
          "name": "",
          "type": "address"
        }
      ],
      "stateMutability": "view",
      "type": "function"
    },
    {
      "inputs": [
        {
          "internalType": "address",
          "name": "owner",
          "type": "address"
        },
        {
          "internalType": "address",
          "name": "operator",
          "type": "address"
        }
      ],
      "name": "isApprovedForAll",
      "outputs": [
        {
          "internalType": "bool",
          "name": "",
          "type": "bool"
        }
      ],
      "stateMutability": "view",
      "type": "function"
    },
    {
      "inputs": [],
      "name": "name",
      "outputs": [
        {
          "internalType": "string",
          "name": "",
          "type": "string"
        }
      ],
      "stateMutability": "view",
      "type": "function"
    },
    {
      "inputs": [],
      "name": "owner",
      "outputs": [
        {
          "internalType": "address",
          "name": "",
          "type": "address"
        }
      ],
      "stateMutability": "view",
      "type": "function"
    },
    {
      "inputs": [
        {
          "internalType": "uint256",
          "name": "tokenId",
          "type": "uint256"
        }
      ],
      "name": "ownerOf",
      "outputs": [
        {
          "internalType": "address",
          "name": "",
          "type": "address"
        }
      ],
      "stateMutability": "view",
      "type": "function"
    },
    {
      "inputs": [],
      "name": "renounceOwnership",
      "outputs": [],
      "stateMutability": "nonpayable",
      "type": "function"
    },
    {
      "inputs": [
        {
          "internalType": "address",
          "name": "from",
          "type": "address"
        },
        {
          "internalType": "address",
          "name": "to",
          "type": "address"
        },
        {
          "internalType": "uint256",
          "name": "tokenId",
          "type": "uint256"
        }
      ],
      "name": "safeTransferFrom",
      "outputs": [],
      "stateMutability": "nonpayable",
      "type": "function"
    },
    {
      "inputs": [
        {
          "internalType": "address",
          "name": "from",
          "type": "address"
        },
        {
          "internalType": "address",
          "name": "to",
          "type": "address"
        },
        {
          "internalType": "uint256",
          "name": "tokenId",
          "type": "uint256"
        },
        {
          "internalType": "bytes",
          "name": "_data",
          "type": "bytes"
        }
      ],
      "name": "safeTransferFrom",
      "outputs": [],
      "stateMutability": "nonpayable",
      "type": "function"
    },
    {
      "inputs": [
        {
          "internalType": "address",
          "name": "operator",
          "type": "address"
        },
        {
          "internalType": "bool",
          "name": "approved",
          "type": "bool"
        }
      ],
      "name": "setApprovalForAll",
      "outputs": [],
      "stateMutability": "nonpayable",
      "type": "function"
    },
    {
      "inputs": [
        {
          "internalType": "bytes4",
          "name": "interfaceId",
          "type": "bytes4"
        }
      ],
      "name": "supportsInterface",
      "outputs": [
        {
          "internalType": "bool",
          "name": "",
          "type": "bool"
        }
      ],
      "stateMutability": "view",
      "type": "function"
    },
    {
      "inputs": [],
      "name": "symbol",
      "outputs": [
        {
          "internalType": "string",
          "name": "",
          "type": "string"
        }
      ],
      "stateMutability": "view",
      "type": "function"
    },
    {
      "inputs": [
        {
          "internalType": "uint256",
          "name": "tokenId",
          "type": "uint256"
        }
      ],
      "name": "tokenURI",
      "outputs": [
        {
          "internalType": "string",
          "name": "",
          "type": "string"
        }
      ],
      "stateMutability": "view",
      "type": "function"
    },
    {
      "inputs": [
        {
          "internalType": "address",
          "name": "from",
          "type": "address"
        },
        {
          "internalType": "address",
          "name": "to",
          "type": "address"
        },
        {
          "internalType": "uint256",
          "name": "tokenId",
          "type": "uint256"
        }
      ],
      "name": "transferFrom",
      "outputs": [],
      "stateMutability": "nonpayable",
      "type": "function"
    },
    {
      "inputs": [
        {
          "internalType": "address",
          "name": "newOwner",
          "type": "address"
        }
      ],
      "name": "transferOwnership",
      "outputs": [],
      "stateMutability": "nonpayable",
      "type": "function"
    },
    {
      "inputs": [
        {
          "internalType": "address",
          "name": "receiver",
          "type": "address"
        },
        {
          "internalType": "string",
          "name": "tokenURI",
          "type": "string"
        }
      ],
      "name": "mintNft",
      "outputs": [
        {
          "internalType": "uint256",
          "name": "",
          "type": "uint256"
        }
      ],
      "stateMutability": "nonpayable",
      "type": "function"
    }
  ],
  "bytecode": "0x60806040523480156200001157600080fd5b506040518060400160405280600b81526020017f4e46542d4578616d706c650000000000000000000000000000000000000000008152506040518060400160405280600381526020017f4e455800000000000000000000000000000000000000000000000000000000008152508160009080519060200190620000969291906200017a565b508060019080519060200190620000af9291906200017a565b5050506000620000cd62000172640100000000026401000000009004565b905080600660006101000a81548173ffffffffffffffffffffffffffffffffffffffff021916908373ffffffffffffffffffffffffffffffffffffffff1602179055508073ffffffffffffffffffffffffffffffffffffffff16600073ffffffffffffffffffffffffffffffffffffffff167f8be0079c531659141344cd1fd0a4f28419497f9722a3daafe3b4186f6b6457e060405160405180910390a3506200028f565b600033905090565b82805462000188906200022a565b90600052602060002090601f016020900481019282620001ac5760008555620001f8565b82601f10620001c757805160ff1916838001178555620001f8565b82800160010185558215620001f8579182015b82811115620001f7578251825591602001919060010190620001da565b5b5090506200020791906200020b565b5090565b5b80821115620002265760008160009055506001016200020c565b5090565b600060028204905060018216806200024357607f821691505b602082108114156200025a576200025962000260565b5b50919050565b7f4e487b7100000000000000000000000000000000000000000000000000000000600052602260045260246000fd5b612c54806200029f6000396000f3fe608060405234801561001057600080fd5b5060043610610128576000357c01000000000000000000000000000000000000000000000000000000009004806370a08231116100bf578063a22cb4651161008e578063a22cb465146102d5578063b88d4fde146102f1578063c87b56dd1461030d578063e985e9c51461033d578063f2fde38b1461036d57610128565b806370a082311461025f578063715018a61461028f5780638da5cb5b1461029957806395d89b41146102b757610128565b806311f87b19116100fb57806311f87b19146101c757806323b872dd146101f757806342842e0e146102135780636352211e1461022f57610128565b806301ffc9a71461012d57806306fdde031461015d578063081812fc1461017b578063095ea7b3146101ab575b600080fd5b61014760048036038101906101429190611e0e565b610389565b60405161015491906125ac565b60405180910390f35b61016561046b565b60405161017291906125c7565b60405180910390f35b61019560048036038101906101909190611e60565b6104fd565b6040516101a29190612545565b60405180910390f35b6101c560048036038101906101c09190611dd2565b610582565b005b6101e160048036038101906101dc9190611d7e565b61069a565b6040516101ee91906127e9565b60405180910390f35b610211600480360381019061020c9190611c78565b610744565b005b61022d60048036038101906102289190611c78565b6107a4565b005b61024960048036038101906102449190611e60565b6107c4565b6040516102569190612545565b60405180910390f35b61027960048036038101906102749190611c13565b610876565b60405161028691906127e9565b60405180910390f35b61029761092e565b005b6102a1610a6b565b6040516102ae9190612545565b60405180910390f35b6102bf610a95565b6040516102cc91906125c7565b60405180910390f35b6102ef60048036038101906102ea9190611d42565b610b27565b005b61030b60048036038101906103069190611cc7565b610ca8565b005b61032760048036038101906103229190611e60565b610d0a565b60405161033491906125c7565b60405180910390f35b61035760048036038101906103529190611c3c565b610db1565b60405161036491906125ac565b60405180910390f35b61038760048036038101906103829190611c13565b610e45565b005b60007f80ac58cd000000000000000000000000000000000000000000000000000000007bffffffffffffffffffffffffffffffffffffffffffffffffffffffff1916827bffffffffffffffffffffffffffffffffffffffffffffffffffffffff1916148061045457507f5b5e139f000000000000000000000000000000000000000000000000000000007bffffffffffffffffffffffffffffffffffffffffffffffffffffffff1916827bffffffffffffffffffffffffffffffffffffffffffffffffffffffff1916145b80610464575061046382610ff1565b5b9050919050565b60606000805461047a90612a49565b80601f01602080910402602001604051908101604052809291908181526020018280546104a690612a49565b80156104f35780601f106104c8576101008083540402835291602001916104f3565b820191906000526020600020905b8154815290600101906020018083116104d657829003601f168201915b5050505050905090565b60006105088261105b565b610547576040517f08c379a000000000000000000000000000000000000000000000000000000000815260040161053e90612729565b60405180910390fd5b6004600083815260200190815260200160002060009054906101000a900473ffffffffffffffffffffffffffffffffffffffff169050919050565b600061058d826107c4565b90508073ffffffffffffffffffffffffffffffffffffffff168373ffffffffffffffffffffffffffffffffffffffff1614156105fe576040517f08c379a00000000000000000000000000000000000000000000000000000000081526004016105f5906127a9565b60405180910390fd5b8073ffffffffffffffffffffffffffffffffffffffff1661061d6110c7565b73ffffffffffffffffffffffffffffffffffffffff16148061064c575061064b816106466110c7565b610db1565b5b61068b576040517f08c379a0000000000000000000000000000000000000000000000000000000008152600401610682906126a9565b60405180910390fd5b61069583836110cf565b505050565b60006106a46110c7565b73ffffffffffffffffffffffffffffffffffffffff166106c2610a6b565b73ffffffffffffffffffffffffffffffffffffffff1614610718576040517f08c379a000000000000000000000000000000000000000000000000000000000815260040161070f90612749565b60405180910390fd5b6107226007611188565b600061072e600761119e565b905061073a84826111ac565b8091505092915050565b61075561074f6110c7565b8261137a565b610794576040517f08c379a000000000000000000000000000000000000000000000000000000000815260040161078b906127c9565b60405180910390fd5b61079f838383611458565b505050565b6107bf83838360405180602001604052806000815250610ca8565b505050565b6000806002600084815260200190815260200160002060009054906101000a900473ffffffffffffffffffffffffffffffffffffffff169050600073ffffffffffffffffffffffffffffffffffffffff168173ffffffffffffffffffffffffffffffffffffffff16141561086d576040517f08c379a0000000000000000000000000000000000000000000000000000000008152600401610864906126e9565b60405180910390fd5b80915050919050565b60008073ffffffffffffffffffffffffffffffffffffffff168273ffffffffffffffffffffffffffffffffffffffff1614156108e7576040517f08c379a00000000000000000000000000000000000000000000000000000000081526004016108de906126c9565b60405180910390fd5b600360008373ffffffffffffffffffffffffffffffffffffffff1673ffffffffffffffffffffffffffffffffffffffff168152602001908152602001600020549050919050565b6109366110c7565b73ffffffffffffffffffffffffffffffffffffffff16610954610a6b565b73ffffffffffffffffffffffffffffffffffffffff16146109aa576040517f08c379a00000000000000000000000000000000000000000000000000000000081526004016109a190612749565b60405180910390fd5b600073ffffffffffffffffffffffffffffffffffffffff16600660009054906101000a900473ffffffffffffffffffffffffffffffffffffffff1673ffffffffffffffffffffffffffffffffffffffff167f8be0079c531659141344cd1fd0a4f28419497f9722a3daafe3b4186f6b6457e060405160405180910390a36000600660006101000a81548173ffffffffffffffffffffffffffffffffffffffff021916908373ffffffffffffffffffffffffffffffffffffffff160217905550565b6000600660009054906101000a900473ffffffffffffffffffffffffffffffffffffffff16905090565b606060018054610aa490612a49565b80601f0160208091040260200160405190810160405280929190818152602001828054610ad090612a49565b8015610b1d5780601f10610af257610100808354040283529160200191610b1d565b820191906000526020600020905b815481529060010190602001808311610b0057829003601f168201915b5050505050905090565b610b2f6110c7565b73ffffffffffffffffffffffffffffffffffffffff168273ffffffffffffffffffffffffffffffffffffffff161415610b9d576040517f08c379a0000000000000000000000000000000000000000000000000000000008152600401610b9490612669565b60405180910390fd5b8060056000610baa6110c7565b73ffffffffffffffffffffffffffffffffffffffff1673ffffffffffffffffffffffffffffffffffffffff16815260200190815260200160002060008473ffffffffffffffffffffffffffffffffffffffff1673ffffffffffffffffffffffffffffffffffffffff16815260200190815260200160002060006101000a81548160ff0219169083151502179055508173ffffffffffffffffffffffffffffffffffffffff16610c576110c7565b73ffffffffffffffffffffffffffffffffffffffff167f17307eab39ab6107e8899845ad3d59bd9653f200f220920489ca2b5937696c3183604051610c9c91906125ac565b60405180910390a35050565b610cb9610cb36110c7565b8361137a565b610cf8576040517f08c379a0000000000000000000000000000000000000000000000000000000008152600401610cef906127c9565b60405180910390fd5b610d04848484846116b4565b50505050565b6060610d158261105b565b610d54576040517f08c379a0000000000000000000000000000000000000000000000000000000008152600401610d4b90612789565b60405180910390fd5b6000610d5e611710565b90506000815111610d7e5760405180602001604052806000815250610da9565b80610d8884611727565b604051602001610d99929190612521565b6040516020818303038152906040525b915050919050565b6000600560008473ffffffffffffffffffffffffffffffffffffffff1673ffffffffffffffffffffffffffffffffffffffff16815260200190815260200160002060008373ffffffffffffffffffffffffffffffffffffffff1673ffffffffffffffffffffffffffffffffffffffff16815260200190815260200160002060009054906101000a900460ff16905092915050565b610e4d6110c7565b73ffffffffffffffffffffffffffffffffffffffff16610e6b610a6b565b73ffffffffffffffffffffffffffffffffffffffff1614610ec1576040517f08c379a0000000000000000000000000000000000000000000000000000000008152600401610eb890612749565b60405180910390fd5b600073ffffffffffffffffffffffffffffffffffffffff168173ffffffffffffffffffffffffffffffffffffffff161415610f31576040517f08c379a0000000000000000000000000000000000000000000000000000000008152600401610f2890612609565b60405180910390fd5b8073ffffffffffffffffffffffffffffffffffffffff16600660009054906101000a900473ffffffffffffffffffffffffffffffffffffffff1673ffffffffffffffffffffffffffffffffffffffff167f8be0079c531659141344cd1fd0a4f28419497f9722a3daafe3b4186f6b6457e060405160405180910390a380600660006101000a81548173ffffffffffffffffffffffffffffffffffffffff021916908373ffffffffffffffffffffffffffffffffffffffff16021790555050565b60007f01ffc9a7000000000000000000000000000000000000000000000000000000007bffffffffffffffffffffffffffffffffffffffffffffffffffffffff1916827bffffffffffffffffffffffffffffffffffffffffffffffffffffffff1916149050919050565b60008073ffffffffffffffffffffffffffffffffffffffff166002600084815260200190815260200160002060009054906101000a900473ffffffffffffffffffffffffffffffffffffffff1673ffffffffffffffffffffffffffffffffffffffff1614159050919050565b600033905090565b816004600083815260200190815260200160002060006101000a81548173ffffffffffffffffffffffffffffffffffffffff021916908373ffffffffffffffffffffffffffffffffffffffff160217905550808273ffffffffffffffffffffffffffffffffffffffff16611142836107c4565b73ffffffffffffffffffffffffffffffffffffffff167f8c5be1e5ebec7d5bd14f71427d1e84f3dd0314c0f7b2291e5b200ac8c7c3b92560405160405180910390a45050565b6001816000016000828254019250508190555050565b600081600001549050919050565b600073ffffffffffffffffffffffffffffffffffffffff168273ffffffffffffffffffffffffffffffffffffffff16141561121c576040517f08c379a000000000000000000000000000000000000000000000000000000000815260040161121390612709565b60405180910390fd5b6112258161105b565b15611265576040517f08c379a000000000000000000000000000000000000000000000000000000000815260040161125c90612629565b60405180910390fd5b611271600083836118f3565b6001600360008473ffffffffffffffffffffffffffffffffffffffff1673ffffffffffffffffffffffffffffffffffffffff16815260200190815260200160002060008282546112c191906128d8565b92505081905550816002600083815260200190815260200160002060006101000a81548173ffffffffffffffffffffffffffffffffffffffff021916908373ffffffffffffffffffffffffffffffffffffffff160217905550808273ffffffffffffffffffffffffffffffffffffffff16600073ffffffffffffffffffffffffffffffffffffffff167fddf252ad1be2c89b69c2b068fc378daa952ba7f163c4a11628f55a4df523b3ef60405160405180910390a45050565b60006113858261105b565b6113c4576040517f08c379a00000000000000000000000000000000000000000000000000000000081526004016113bb90612689565b60405180910390fd5b60006113cf836107c4565b90508073ffffffffffffffffffffffffffffffffffffffff168473ffffffffffffffffffffffffffffffffffffffff16148061143e57508373ffffffffffffffffffffffffffffffffffffffff16611426846104fd565b73ffffffffffffffffffffffffffffffffffffffff16145b8061144f575061144e8185610db1565b5b91505092915050565b8273ffffffffffffffffffffffffffffffffffffffff16611478826107c4565b73ffffffffffffffffffffffffffffffffffffffff16146114ce576040517f08c379a00000000000000000000000000000000000000000000000000000000081526004016114c590612769565b60405180910390fd5b600073ffffffffffffffffffffffffffffffffffffffff168273ffffffffffffffffffffffffffffffffffffffff16141561153e576040517f08c379a000000000000000000000000000000000000000000000000000000000815260040161153590612649565b60405180910390fd5b6115498383836118f3565b6115546000826110cf565b6001600360008573ffffffffffffffffffffffffffffffffffffffff1673ffffffffffffffffffffffffffffffffffffffff16815260200190815260200160002060008282546115a4919061295f565b925050819055506001600360008473ffffffffffffffffffffffffffffffffffffffff1673ffffffffffffffffffffffffffffffffffffffff16815260200190815260200160002060008282546115fb91906128d8565b92505081905550816002600083815260200190815260200160002060006101000a81548173ffffffffffffffffffffffffffffffffffffffff021916908373ffffffffffffffffffffffffffffffffffffffff160217905550808273ffffffffffffffffffffffffffffffffffffffff168473ffffffffffffffffffffffffffffffffffffffff167fddf252ad1be2c89b69c2b068fc378daa952ba7f163c4a11628f55a4df523b3ef60405160405180910390a4505050565b6116bf848484611458565b6116cb848484846118f8565b61170a576040517f08c379a0000000000000000000000000000000000000000000000000000000008152600401611701906125e9565b60405180910390fd5b50505050565b606060405180602001604052806000815250905090565b6060600082141561176f576040518060400160405280600181526020017f300000000000000000000000000000000000000000000000000000000000000081525090506118ee565b600082905060005b600082146117a157808061178a90612a7b565b915050600a8261179a919061292e565b9150611777565b60008167ffffffffffffffff8111156117e3577f4e487b7100000000000000000000000000000000000000000000000000000000600052604160045260246000fd5b6040519080825280601f01601f1916602001820160405280156118155781602001600182028036833780820191505090505b5090505b600085146118e75760018261182e919061295f565b9150600a8561183d9190612ac4565b603061184991906128d8565b7f0100000000000000000000000000000000000000000000000000000000000000028183815181106118a4577f4e487b7100000000000000000000000000000000000000000000000000000000600052603260045260246000fd5b60200101907effffffffffffffffffffffffffffffffffffffffffffffffffffffffffffff1916908160001a905350600a856118e0919061292e565b9450611819565b8093505050505b919050565b505050565b60006119198473ffffffffffffffffffffffffffffffffffffffff16611ac7565b15611aba578373ffffffffffffffffffffffffffffffffffffffff1663150b7a026119426110c7565b8786866040518563ffffffff167c01000000000000000000000000000000000000000000000000000000000281526004016119809493929190612560565b602060405180830381600087803b15801561199a57600080fd5b505af19250505080156119cb57506040513d601f19601f820116820180604052508101906119c89190611e37565b60015b611a4e573d80600081146119fb576040519150601f19603f3d011682016040523d82523d6000602084013e611a00565b606091505b50600081511415611a46576040517f08c379a0000000000000000000000000000000000000000000000000000000008152600401611a3d906125e9565b60405180910390fd5b805181602001fd5b63150b7a027c0100000000000000000000000000000000000000000000000000000000027bffffffffffffffffffffffffffffffffffffffffffffffffffffffff1916817bffffffffffffffffffffffffffffffffffffffffffffffffffffffff191614915050611abf565b600190505b949350505050565b600080823b905060008111915050919050565b6000611aed611ae884612835565b612804565b905082815260208101848484011115611b0557600080fd5b611b10848285612a07565b509392505050565b6000611b2b611b2684612865565b612804565b905082815260208101848484011115611b4357600080fd5b611b4e848285612a07565b509392505050565b600081359050611b6581612bc2565b92915050565b600081359050611b7a81612bd9565b92915050565b600081359050611b8f81612bf0565b92915050565b600081519050611ba481612bf0565b92915050565b600082601f830112611bbb57600080fd5b8135611bcb848260208601611ada565b91505092915050565b600082601f830112611be557600080fd5b8135611bf5848260208601611b18565b91505092915050565b600081359050611c0d81612c07565b92915050565b600060208284031215611c2557600080fd5b6000611c3384828501611b56565b91505092915050565b60008060408385031215611c4f57600080fd5b6000611c5d85828601611b56565b9250506020611c6e85828601611b56565b9150509250929050565b600080600060608486031215611c8d57600080fd5b6000611c9b86828701611b56565b9350506020611cac86828701611b56565b9250506040611cbd86828701611bfe565b9150509250925092565b60008060008060808587031215611cdd57600080fd5b6000611ceb87828801611b56565b9450506020611cfc87828801611b56565b9350506040611d0d87828801611bfe565b925050606085013567ffffffffffffffff811115611d2a57600080fd5b611d3687828801611baa565b91505092959194509250565b60008060408385031215611d5557600080fd5b6000611d6385828601611b56565b9250506020611d7485828601611b6b565b9150509250929050565b60008060408385031215611d9157600080fd5b6000611d9f85828601611b56565b925050602083013567ffffffffffffffff811115611dbc57600080fd5b611dc885828601611bd4565b9150509250929050565b60008060408385031215611de557600080fd5b6000611df385828601611b56565b9250506020611e0485828601611bfe565b9150509250929050565b600060208284031215611e2057600080fd5b6000611e2e84828501611b80565b91505092915050565b600060208284031215611e4957600080fd5b6000611e5784828501611b95565b91505092915050565b600060208284031215611e7257600080fd5b6000611e8084828501611bfe565b91505092915050565b611e9281612993565b82525050565b611ea1816129a5565b82525050565b6000611eb282612895565b611ebc81856128ab565b9350611ecc818560208601612a16565b611ed581612bb1565b840191505092915050565b6000611eeb826128a0565b611ef581856128bc565b9350611f05818560208601612a16565b611f0e81612bb1565b840191505092915050565b6000611f24826128a0565b611f2e81856128cd565b9350611f3e818560208601612a16565b80840191505092915050565b6000611f576032836128bc565b91507f4552433732313a207472616e7366657220746f206e6f6e20455243373231526560008301527f63656976657220696d706c656d656e74657200000000000000000000000000006020830152604082019050919050565b6000611fbd6026836128bc565b91507f4f776e61626c653a206e6577206f776e657220697320746865207a65726f206160008301527f64647265737300000000000000000000000000000000000000000000000000006020830152604082019050919050565b6000612023601c836128bc565b91507f4552433732313a20746f6b656e20616c7265616479206d696e746564000000006000830152602082019050919050565b60006120636024836128bc565b91507f4552433732313a207472616e7366657220746f20746865207a65726f2061646460008301527f72657373000000000000000000000000000000000000000000000000000000006020830152604082019050919050565b60006120c96019836128bc565b91507f4552433732313a20617070726f766520746f2063616c6c6572000000000000006000830152602082019050919050565b6000612109602c836128bc565b91507f4552433732313a206f70657261746f7220717565727920666f72206e6f6e657860008301527f697374656e7420746f6b656e00000000000000000000000000000000000000006020830152604082019050919050565b600061216f6038836128bc565b91507f4552433732313a20617070726f76652063616c6c6572206973206e6f74206f7760008301527f6e6572206e6f7220617070726f76656420666f7220616c6c00000000000000006020830152604082019050919050565b60006121d5602a836128bc565b91507f4552433732313a2062616c616e636520717565727920666f7220746865207a6560008301527f726f2061646472657373000000000000000000000000000000000000000000006020830152604082019050919050565b600061223b6029836128bc565b91507f4552433732313a206f776e657220717565727920666f72206e6f6e657869737460008301527f656e7420746f6b656e00000000000000000000000000000000000000000000006020830152604082019050919050565b60006122a16020836128bc565b91507f4552433732313a206d696e7420746f20746865207a65726f20616464726573736000830152602082019050919050565b60006122e1602c836128bc565b91507f4552433732313a20617070726f76656420717565727920666f72206e6f6e657860008301527f697374656e7420746f6b656e00000000000000000000000000000000000000006020830152604082019050919050565b60006123476020836128bc565b91507f4f776e61626c653a2063616c6c6572206973206e6f7420746865206f776e65726000830152602082019050919050565b60006123876029836128bc565b91507f4552433732313a207472616e73666572206f6620746f6b656e2074686174206960008301527f73206e6f74206f776e00000000000000000000000000000000000000000000006020830152604082019050919050565b60006123ed602f836128bc565b91507f4552433732314d657461646174613a2055524920717565727920666f72206e6f60008301527f6e6578697374656e7420746f6b656e00000000000000000000000000000000006020830152604082019050919050565b60006124536021836128bc565b91507f4552433732313a20617070726f76616c20746f2063757272656e74206f776e6560008301527f72000000000000000000000000000000000000000000000000000000000000006020830152604082019050919050565b60006124b96031836128bc565b91507f4552433732313a207472616e736665722063616c6c6572206973206e6f74206f60008301527f776e6572206e6f7220617070726f7665640000000000000000000000000000006020830152604082019050919050565b61251b816129fd565b82525050565b600061252d8285611f19565b91506125398284611f19565b91508190509392505050565b600060208201905061255a6000830184611e89565b92915050565b60006080820190506125756000830187611e89565b6125826020830186611e89565b61258f6040830185612512565b81810360608301526125a18184611ea7565b905095945050505050565b60006020820190506125c16000830184611e98565b92915050565b600060208201905081810360008301526125e18184611ee0565b905092915050565b6000602082019050818103600083015261260281611f4a565b9050919050565b6000602082019050818103600083015261262281611fb0565b9050919050565b6000602082019050818103600083015261264281612016565b9050919050565b6000602082019050818103600083015261266281612056565b9050919050565b60006020820190508181036000830152612682816120bc565b9050919050565b600060208201905081810360008301526126a2816120fc565b9050919050565b600060208201905081810360008301526126c281612162565b9050919050565b600060208201905081810360008301526126e2816121c8565b9050919050565b600060208201905081810360008301526127028161222e565b9050919050565b6000602082019050818103600083015261272281612294565b9050919050565b60006020820190508181036000830152612742816122d4565b9050919050565b600060208201905081810360008301526127628161233a565b9050919050565b600060208201905081810360008301526127828161237a565b9050919050565b600060208201905081810360008301526127a2816123e0565b9050919050565b600060208201905081810360008301526127c281612446565b9050919050565b600060208201905081810360008301526127e2816124ac565b9050919050565b60006020820190506127fe6000830184612512565b92915050565b6000604051905081810181811067ffffffffffffffff8211171561282b5761282a612b82565b5b8060405250919050565b600067ffffffffffffffff8211156128505761284f612b82565b5b601f19601f8301169050602081019050919050565b600067ffffffffffffffff8211156128805761287f612b82565b5b601f19601f8301169050602081019050919050565b600081519050919050565b600081519050919050565b600082825260208201905092915050565b600082825260208201905092915050565b600081905092915050565b60006128e3826129fd565b91506128ee836129fd565b9250827fffffffffffffffffffffffffffffffffffffffffffffffffffffffffffffffff0382111561292357612922612af5565b5b828201905092915050565b6000612939826129fd565b9150612944836129fd565b92508261295457612953612b24565b5b828204905092915050565b600061296a826129fd565b9150612975836129fd565b92508282101561298857612987612af5565b5b828203905092915050565b600061299e826129dd565b9050919050565b60008115159050919050565b60007fffffffff0000000000000000000000000000000000000000000000000000000082169050919050565b600073ffffffffffffffffffffffffffffffffffffffff82169050919050565b6000819050919050565b82818337600083830152505050565b60005b83811015612a34578082015181840152602081019050612a19565b83811115612a43576000848401525b50505050565b60006002820490506001821680612a6157607f821691505b60208210811415612a7557612a74612b53565b5b50919050565b6000612a86826129fd565b91507fffffffffffffffffffffffffffffffffffffffffffffffffffffffffffffffff821415612ab957612ab8612af5565b5b600182019050919050565b6000612acf826129fd565b9150612ada836129fd565b925082612aea57612ae9612b24565b5b828206905092915050565b7f4e487b7100000000000000000000000000000000000000000000000000000000600052601160045260246000fd5b7f4e487b7100000000000000000000000000000000000000000000000000000000600052601260045260246000fd5b7f4e487b7100000000000000000000000000000000000000000000000000000000600052602260045260246000fd5b7f4e487b7100000000000000000000000000000000000000000000000000000000600052604160045260246000fd5b6000601f19601f8301169050919050565b612bcb81612993565b8114612bd657600080fd5b50565b612be2816129a5565b8114612bed57600080fd5b50565b612bf9816129b1565b8114612c0457600080fd5b50565b612c10816129fd565b8114612c1b57600080fd5b5056fea264697066735822122061f5751e8669199f6a74e3e74c1387524df06a568df6e05b4f9af9caf71633c764736f6c63430008000033",
  "immutableReferences": {},
  "source": "// SPDX-License-Identifier: MIT\npragma solidity ^0.8.0;\n\nimport \"@openzeppelin/contracts/token/ERC721/ERC721.sol\";\nimport \"@openzeppelin/contracts/utils/Counters.sol\";\nimport \"@openzeppelin/contracts/access/Ownable.sol\";\n\ncontract NftExample is ERC721, Ownable {\n    using Counters for Counters.Counter;\n    Counters.Counter private _tokenIds;\n\n    constructor() ERC721(\"NFT-Example\", \"NEX\") {}\n\n    function mintNft(address receiver, string memory tokenURI)\n        external\n        onlyOwner\n        returns (uint256)\n    {\n        _tokenIds.increment();\n\n        uint256 newNftTokenId = _tokenIds.current();\n        _mint(receiver, newNftTokenId);\n        // _setTokenURI(newNftTokenId, tokenURI);\n\n        return newNftTokenId;\n    }\n}\n",
  "sourcePath": "/media/dev/a1f3111b-cf3b-4b8d-8080-52d4b51c231e6/dev//hackathons/DEFI/drizzle/contracts/NFTBookToken.sol",
  "compiler": {
    "name": "solc",
    "version": "0.8.0+commit.c7dfd78e.Linux.g++"
  },
  "schemaVersion": "3.4.0",
  "updatedAt": "2021-05-29T21:15:20.006Z",
  "devdoc": {
    "kind": "dev",
    "methods": {
      "approve(address,uint256)": {
        "details": "See {IERC721-approve}."
      },
      "balanceOf(address)": {
        "details": "See {IERC721-balanceOf}."
      },
      "getApproved(uint256)": {
        "details": "See {IERC721-getApproved}."
      },
      "isApprovedForAll(address,address)": {
        "details": "See {IERC721-isApprovedForAll}."
      },
      "name()": {
        "details": "See {IERC721Metadata-name}."
      },
      "owner()": {
        "details": "Returns the address of the current owner."
      },
      "ownerOf(uint256)": {
        "details": "See {IERC721-ownerOf}."
      },
      "renounceOwnership()": {
        "details": "Leaves the contract without owner. It will not be possible to call `onlyOwner` functions anymore. Can only be called by the current owner. NOTE: Renouncing ownership will leave the contract without an owner, thereby removing any functionality that is only available to the owner."
      },
      "safeTransferFrom(address,address,uint256)": {
        "details": "See {IERC721-safeTransferFrom}."
      },
      "safeTransferFrom(address,address,uint256,bytes)": {
        "details": "See {IERC721-safeTransferFrom}."
      },
      "setApprovalForAll(address,bool)": {
        "details": "See {IERC721-setApprovalForAll}."
      },
      "supportsInterface(bytes4)": {
        "details": "See {IERC165-supportsInterface}."
      },
      "symbol()": {
        "details": "See {IERC721Metadata-symbol}."
      },
      "tokenURI(uint256)": {
        "details": "See {IERC721Metadata-tokenURI}."
      },
      "transferFrom(address,address,uint256)": {
        "details": "See {IERC721-transferFrom}."
      },
      "transferOwnership(address)": {
        "details": "Transfers ownership of the contract to a new account (`newOwner`). Can only be called by the current owner."
      }
    },
    "version": 1
  },
  "userdoc": {
    "kind": "user",
    "methods": {},
    "version": 1
  }
}